:03000000020933BF
:0C093300787FE4F6D8FD75812502097A72
:100A930002160000020A0000020800000A1C003FC0
:100AA3000006005B004F006602180000021A0000F7
:0C0AB3000A0C0000000000000000000021
:100AC000E4FFFEE4FCFD0DBD00010CED64644C7020
:0C0AD000F50FBF00010EBE01EABFF4E705
:010ADC0022F7
:1009BF00E4FBFAF582F583E4F583F58220B6263061
:1009CF00B723E50B450A7005F516751701E50B649E
:1009DF0001450A7010E509150970021508E4F50ABA
:1009EF00F50B120AC030B62620B723E5174516704F
:1009FF0005F50A750B01E517640145167010050919
:100A0F00E50970020508E4F516F517120AC0A3E50B
:100A1F008264C8458370A50BBB00010AEB64D070DC
:060A2F0003EA6407709168
:010A3500229E
:100ADD00E4FFFEE4FCFD0DBD00010CED64644C7003
:0C0AED00F50FBF00010EBE03EABFE8E7F2
:010AF90022DA
:100AFA00E4FFFEE4FCFD0DBD00010CED645A4C70F0
:0C0B0A00F50FBF00010EBE03EABFE8E7D4
:010B160022BC
:100B1700D2B0C2B1120ADDC2B0D2B1120AFAC2B162
:010B270022AB
:100B2800C2B0D2B1120ADDC2B1D2B0120AFAC2B052
:010B3800229A
:0C0B3900D296C2951209BFD295C2962236
:100A6500209406750C00750D01209306750E007512
:100A75000F0120920675100075110120910675125F
:0E0A85000075130120900675140075150122EE
:0C0B4500758911758CDDE4F58AD28C22D4
:03000B00020B588D
:040B5800120A6532E6
:070B5100D2AFD2AAD28A2222
:03001300020A36A8
:100A3600C0E0C083C082C0D075D000C002C003C071
:100A460004C005C006C007120B39D007D006D00572
:0F0A5600D004D003D002D0D0D082D083D0E032F1
:10080000120B45120B517580FFC297C296D2957597
:10081000B0C0D2AFD2A975A03FD3E5099404E508D2
:10082000648094804004D29780EFC3E5099405E585
:1008300008648094805002C297E4F51AF51BF51AFB
:10084000F51BE51B25E0240CF8E6FE08E64E604F9C
:10085000D3E51B9519E5186480F8E51A6480984083
:100860003EE519651B7004E518651A6032120B1716
:100870000519E51970020518FF25E0241CF808E6A3
:10088000F5A0EF25E0240CF8E6FE08E64E60D21253
:100890000B39E51925E0240CF8E4F608F680C205CA
:1008A0001BE51B7002051AC39405E51A6480948049
:1008B0004090751A00751B04751A00751B04C3E57A
:1008C0001A648094805003020819E51B25E0240C6B
:1008D000F8E6FE08E64E6051C3E51B9519E518647D
:1008E00080F8E51A6480985040E519651B7004E5AE
:1008F00018651A6034120B28E519151970021518BD
:10090000AF19EF25E0241CF808E6F5A0EF25E02458
:100910000CF8E6FE08E64E60D0120B39E51925E02A
:10092000240CF8E4F608F680C0E51B151B708F1543
:030930001A808B9F
:10093F00020800E493A3F8E493A34003F68001F2C6
:10094F0008DFF48029E493A3F85407240CC8C333B9
:10095F00C4540F4420C8834004F456800146F6DF88
:10096F00E4800B0102040810204080900A93E47E7B
:10097F00019360BCA3FF543F30E509541FFEE4937D
:10098F00A360010ECF54C025E060A840B8E493A344
:10099F00FAE493A3F8E493A3C8C582C8CAC583CA6F
:1009AF00F0A3C8C582C8CAC583CADFE9DEE780BE27
:010ABF000036
:00000001FF
